:020000021000EC
:10400000002B001029890100218901002D5D01008C
:104010002389010023890100238901000000000099
:10402000000000000000000000000000E194020019
:10403000258901000000000051950200B59502009D
:1040400025890100258901002589010025890100B4
:1040500025890100258901002589010025890100A4
:1040600049C1010025890100258901002589010038
:10407000B1950100D922040005AF010081CD0100F6
:1040800089CE010025890100291E0400258901002F
:10409000258901002589010049AF010051970200DF
:1040A00071970200258901002589010025890100F9
:1040B0002589010025890100258901002589010044
:1040C00000000000000000000000000000000000F0
:1040D00000000000000000000000000000000000E0
:1040E00000000000000000000000000000000000D0
:1040F00000000000000000000000000000000000C0
:10410000034613F8012B002AFBD1181A0138704717
:1041100001F0FF01102A2BDB10F0070F08D010F878
:10412000013B013A8B422DD010F0070F42B3F6D17C
:10413000F0B441EA012141EA014122F007047FF095
:1041400000070023F0E80256083C85EA010586EAEC
:10415000010685FA47F5A3FA87F586FA47F6A5FA28
:1041600087F68EB9EED1F0BC01F0FF0102F0070234
:1041700032B110F8013B013A83EA010313B1F8D1DF
:104180000020704701387047002D06BF35460338C0
:10419000073815F0010F07D1013015F4807F02BFF9
:1041A000013015F4C03F0130F0BC0138704700BF4A
:1041B00010F8012B11F8013B012A28BF9A42F7D0D1
:1041C000D01A704781F0004102E000BF83F0004345
:1041D00030B54FEA41044FEA430594EA050F08BFA2
:1041E00090EA020F1FBF54EA000C55EA020C7FEA66
:1041F000645C7FEA655C00F0E2804FEA5454D4EBE3
:104200005555B8BF6D420CDD2C4480EA020281EAAC
:10421000030382EA000083EA010180EA020281EAE4
:104220000303362D88BF30BD11F0004F4FEA013136
:104230004FF4801C4CEA113102D0404261EB410145
:1042400013F0004F4FEA03334CEA133302D05242CB
:1042500063EB430394EA050F00F0A780A4F1010487
:10426000D5F1200E0DDB02FA0EFC22FA05F28018C1
:1042700041F1000103FA0EF2801843FA05F35941A7
:104280000EE0A5F120050EF1200E012A03FA0EFC26
:1042900028BF4CF0020C43FA05F3C01851EBE37150
:1042A00001F0004507D54FF0000EDCF1000C7EEB6D
:1042B00000006EEB0101B1F5801F1BD3B1F5001FAB
:1042C0000CD349085FEA30004FEA3C0C04F10104CA
:1042D0004FEA445212F5800F80F09A80BCF1004FF3
:1042E00008BF5FEA500C50F1000041EB045141EA75
:1042F000050130BD5FEA4C0C404141EB0101013C3E
:1043000028BFB1F5801FE9D291F0000F04BF01462C
:104310000020B1FA81F308BF2033A3F10B03B3F1FE
:1043200020020CDA0C3208DD02F1140CC2F10C028E
:1043300001FA0CF021FA02F10CE002F11402D8BFEC
:10434000C2F1200C01FA02F120FA0CFCDCBF41EAB8
:104350000C019040E41AA2BF01EB0451294330BD87
:104360006FEA04041F3C1CDA0C340EDC04F1140464
:10437000C4F1200220FA04F001FA02F340EA03003B
:1043800021FA04F345EA030130BDC4F10C04C4F181
:10439000200220FA02F001FA04F340EA0300294661
:1043A00030BD21FA04F0294630BD94F0000F83F4AB
:1043B000801306BF81F480110134013D4EE77FEA8E
:1043C000645C18BF7FEA655C29D094EA050F08BFDA
:1043D00090EA020F05D054EA000C04BF19461046BB
:1043E00030BD91EA030F1EBF0021002030BD5FEAFF
:1043F000545C05D14000494128BF41F0004130BD27
:1044000014F580043CBF01F5801130BD01F000457A
:1044100045F0FE4141F470014FF0000030BD7FEAED
:10442000645C1ABF194610467FEA655C1CBF0B46E8
:10443000024650EA013406BF52EA033591EA030FFF
:1044400041F4002130BD00BF90F0000F04BF0021F7
:10445000704730B54FF4806404F132044FF000052A
:104460004FF0000150E700BF90F0000F04BF0021A3
:10447000704730B54FF4806404F1320410F0004509
:1044800048BF40424FF000013EE700BF42004FEA04
:10449000E2014FEA31014FEA02701FBF12F07F4381
:1044A00093F07F4F81F06051704732F07F4208BF38
:1044B000704793F07F4F04BF41F40021704730B53F
:1044C0004FF4607401F0004521F000411CE700BF8B
:1044D00050EA010208BF704730B54FF000050AE00E
:1044E00050EA010208BF704730B511F0004502D50F
:1044F000404261EB41014FF4806404F132045FEA11
:10450000915C3FF4D8AE4FF003025FEADC0C18BFB9
:1045100003325FEADC0C18BF033202EBDC02C2F1AB
:10452000200300FA03FC20FA02F001FA03FE40EA3D
:104530000E0021FA02F11444BDE600BF70B54FF041
:10454000FF0C4CF4E06C1CEA11541DBF1CEA13551F
:1045500094EA0C0F95EA0C0F00F0DEF82C4481EA87
:10456000030621EA4C5123EA4C5350EA013518BFA7
:1045700052EA033541F4801143F4801338D0A0FB94
:1045800002CE4FF00005E1FB02E506F00042E0FB41
:1045900003E54FF00006E1FB03569CF0000F18BF47
:1045A0004EF0010EA4F1FF04B6F5007F64F54074EF
:1045B00004D25FEA4E0E6D4146EB060642EAC62182
:1045C00041EA55514FEAC52040EA5E504FEACE2EEF
:1045D000B4F1FD0C88BFBCF5E06F1ED8BEF1004FF2
:1045E00008BF5FEA500E50F1000041EB045170BD6E
:1045F00006F0004646EA010140EA020081EA0301B2
:10460000B4EB5C04C2BFD4EB0C0541EA045170BDAD
:1046100041F480114FF0000E013C00F3AB8014F127
:10462000360FDEBF002001F0004170BDC4F1000470
:10463000203C35DA0C341BDC04F11404C4F12005F1
:1046400000FA05F320FA04F001FA05F240EA02004C
:1046500001F0004221F0004110EBD37021FA04F682
:1046600042EB06015EEA430E08BF20EAD37070BD3C
:10467000C4F10C04C4F1200500FA04F320FA05F09B
:1046800001FA04F240EA020001F0004110EBD3709D
:1046900041F100015EEA430E08BF20EAD37070BD0D
:1046A000C4F1200500FA05F24EEA020E20FA04F3E6
:1046B00001FA05F243EA020321FA04F001F0004195
:1046C00021FA04F220EA020000EBD3705EEA430E06
:1046D00008BF20EAD37070BD94F0000F0FD101F035
:1046E0000046400041EB010111F4801F08BF013C6E
:1046F000F7D041EA060195F0000F18BF704703F0AC
:104700000046520043EB030313F4801F08BF013D32
:10471000F7D043EA0603704794EA0C0F0CEA1355EE
:1047200018BF95EA0C0F0CD050EA410618BF52EAA8
:104730004306D1D181EA030101F000414FF00000AE
:1047400070BD50EA410606BF1046194652EA4306BC
:1047500019D094EA0C0F02D150EA013613D195EA30
:104760000C0F05D152EA03361CBF104619460AD178
:1047700081EA030101F0004141F0FE4141F4700182
:104780004FF0000070BD41F0FE4141F4780170BD72
:1047900070B54FF0FF0C4CF4E06C1CEA11541DBFD7
:1047A0001CEA135594EA0C0F95EA0C0F00F0A7F8D9
:1047B000A4EB050481EA030E52EA03354FEA013106
:1047C00000F088804FEA03334FF0805545EA131319
:1047D00043EA12634FEA022245EA111545EA1065E1
:1047E0004FEA00260EF000419D4208BF964244F178
:1047F000FD0404F5407402D25B084FEA3202B61A97
:1048000065EB03055B084FEA32024FF480104FF46A
:10481000002CB6EB020E75EB030E22BFB61A7546DE
:1048200040EA0C005B084FEA3202B6EB020E75EB71
:10483000030E22BFB61A754640EA5C005B084FEAD9
:104840003202B6EB020E75EB030E22BFB61A7546A6
:1048500040EA9C005B084FEA3202B6EB020E75EBB1
:10486000030E22BFB61A754640EADC0055EA060E72
:1048700018D04FEA051545EA16754FEA06164FEAB5
:10488000C30343EA52734FEAC2025FEA1C1CC0D161
:1048900011F4801F0BD141EA00014FF000004FF0EE
:1048A000004CB6E711F4801F04BF01430020B4F1AF
:1048B000FD0C88BFBCF5E06F3FF6AFAEB5EB030C67
:1048C00004BFB6EB020C5FEA500C50F1000041EB64
:1048D000045170BD0EF0004E4EEA113114EB5C0431
:1048E000C2BFD4EB0C0541EA045170BD41F4801104
:1048F0004FF0000E013C90E645EA060E8DE60CEA0C
:10490000135594EA0C0F08BF95EA0C0F3FF43BAF28
:1049100094EA0C0F0AD150EA01347FF434AF95EADF
:104920000C0F7FF425AF104619462CE795EA0C0FC3
:1049300006D152EA03353FF4FDAE1046194622E790
:1049400050EA410618BF52EA43067FF4C5AE50EA6A
:1049500041047FF40DAF52EA43057FF4EBAE12E75A
:104960004FF0FF3C06E000BF4FF0010C02E000BF3B
:104970004FF0010C4DF804CD4FEA410C7FEA6C5C1E
:104980004FEA430C18BF7FEA6C5C1BD001B050EAC1
:10499000410C0CBF52EA430C91EA030F02BF90EAAC
:1049A000020F0020704710F1000F91EA030F58BF6B
:1049B000994208BF90422CBFD8176FEAE37040F0CD
:1049C000010070474FEA410C7FEA6C5C02D150EA6B
:1049D000013C07D14FEA430C7FEA6C5CD6D152EA26
:1049E000033CD3D05DF8040B704700BF84461046EB
:1049F00062468C461946634600E000BF01B5FFF7EA
:104A0000B7FF002848BF10F1000F01BD4DF808EDB9
:104A1000FFF7F4FF0CBF012000205DF808FB00BF8A
:104A20004DF808EDFFF7EAFF34BF012000205DF8E4
:104A300008FB00BF4DF808EDFFF7E0FF94BF012031
:104A400000205DF808FB00BF4DF808EDFFF7CEFF32
:104A500094BF012000205DF808FB00BF4DF808ED71
:104A6000FFF7C4FF34BF012000205DF808FB00BF42
:104A70004FEA410C7FEA6C5C02D150EA013C0AD15A
:104A80004FEA430C7FEA6C5C02D152EA033C02D14C
:104A90004FF0000070474FF0010070474FEA4102AD
:104AA00012F5001215D211D56FF47873B3EB625280
:104AB00012D94FEAC12343F0004343EA505311F0A7
:104AC000004F23FA02F018BF404270474FF0000039
:104AD000704750EA013005D111F0004008BF6FF077
:104AE000004070474FF00000704700BF4A0011D2ED
:104AF00012F5001211D20DD56FF47873B3EB625238
:104B00000ED44FEAC12343F0004343EA505323FA43
:104B100002F070474FF00000704750EA013002D1B8
:104B20004FF0FF3070474FF00000704753B94AB95B
:104B3000002908BF00281CBF4FF0FF314FF0FF30A5
:104B400000F06EB9ADF1080C6DE904CE00F006F886
:104B5000DDF804E0DDE9022304B070472DE9F047F9
:104B6000089D04468C46002B40F083808A421746FD
:104B700047D9B2FA82F242B1C2F1200024FA00F021
:104B80009140974040EA010C94404FEA1748230CAB
:104B9000BCFBF8F61FFA87FE08FB16C143EA014387
:104BA00006FB0EF1994209D9FB1806F1FF3080F09F
:104BB0001981994240F21681023E3B445B1AA4B22D
:104BC000B3FBF8F008FB103344EA034400FB0EFE8D
:104BD000A64509D93C1900F1FF3380F00581A645AF
:104BE00040F2028102383C4440EA0640A4EB0E0445
:104BF00000261DB1D4400023C5E900433146BDE87D
:104C0000F08702B9FFDEB2FA82F2002A50D1CB1B44
:104C10004FEA174E1FFA87F80126B3FBFEFC210C62
:104C20000EFB1C3341EA034108FB0CF38B4207D90E
:104C300079180CF1FF3002D28B4200F2E9808446F1
:104C4000C91AA3B2B1FBFEF00EFB101143EA0144F6
:104C500008FB00F8A04507D93C1900F1FF3302D248
:104C6000A04500F2D9801846A4EB080440EA0C40A5
:104C7000BFE78B4209D9002D00F0B1800026C5E9BD
:104C8000000130463146BDE8F087B3FA83F6002EC6
:104C90004AD18B4202D3824200F2B880841A61EB7F
:104CA000030101208C46002DA8D0C5E9004CA5E7E2
:104CB000C2F1200320FA03F6974001FA02F04FEA0E
:104CC000174ED9403043030CB1FBFEF61FFA87F8AC
:104CD0000EFB161143EA014306FB08F1994204FA60
:104CE00002F409D9FB1806F1FF3C80F08D8099424F
:104CF00040F28A80023E3B445B1A81B2B3FBFEF075
:104D00000EFB103341EA034100FB08F38B4207D945
:104D1000791800F1FF3C73D28B4271D902383944C3
:104D2000CB1A40EA064678E7C6F1200C03FA06F4EF
:104D300022FA0CF31C4320FA0CF701FA06F34FEAAF
:104D4000144E21FA0CF11F433B0CB1FBFEF91FFA84
:104D500084F80EFB191143EA014109FB08FA8A4560
:104D600002FA06F200FA06F308D9611809F1FF30D9
:104D700048D28A4546D9A9F102092144A1EB0A018A
:104D8000BFB2B1FBFEF00EFB101147EA014700FB7A
:104D900008F8B84507D9E71900F1FF312ED2B84518
:104DA0002CD90238274440EA0940A7EB0807A0FBAA
:104DB00002894F45C64649461AD317D05DB1B3EBB9
:104DC0000E0267EB010707FA0CFCF2404CEA020204
:104DD000F740C5E9002700263146BDE8F0872E469A
:104DE00028460BE70646E9E61846FDE64345E5D2C8
:104DF000B8EB020E69EB04010138DFE70846D2E7A1
:104E000060468DE78146B9E7664675E730464AE772
:104E1000ACF1020C394413E702383C4424E700BFEC
:104E2000704700BF18B90349034808F0F3BD0349B0
:104E3000FAE700BFF8B30400847300100AB404005A
:104E4000F8B5037A044643B314491548154F144E78
:104E500008F0E0FD0025227A6368AA4206DD5A5D6B
:104E60003946304608F0E0FD0135F4E71A780E4B7C
:104E70000E4C1A704EF6602353430D4908482360C8
:104E800008F0B1FD216806480A2208F05DFEBDE881
:104E9000F8400849024808F0A6BDF8BD19B404005E
:104EA0008473001064C30400445200104052001088
:104EB0002DB4040029B50400F0B55F488DB003217E
:104EC00008F03DFB5C48002108F02DFB2C225B48DC
:104ED000012108F0F4FE5A4B02935A4B04AA03F145
:104EE0001005164618685968144603C40833AB42C7
:104EF0002246F7D1544B08AA03F11007154618684B
:104F00005968144603C40833BB422246F7D14F48C0
:104F1000042202A908F077FB28B94D494D4808F052
:104F200083FD0DB0F0BD4C481022314608F050FB17
:104F300008B94A49F2E74A481022294608F075FBA9
:104F400008B94849EAE74848092108F0E5FB08B9EB
:104F50004649E3E74648002108F0AFFB08B9454958
:104F6000DCE74548002108F088FB08B94349D5E74C
:104F70004348012108F091FB08B94249CEE7424875
:104F8000012108F006FB08B94049C7E74048012164
:104F900008F064FB08B93F49C0E741F288313E4858
:104FA00008F09FFB3D493E4A002818BF0A463D498C
:104FB000284808F039FD3C4808F091FB3B493C4A41
:104FC000002818BF0A463B49224808F02DFD30480A
:104FD00008F03DFB3849394A002818BF0A463849CD
:104FE0001C4808F021FD002303A90422174803935D
:104FF00008F000FB9DF80F3001939DF80E309DF8EE
:105000000C2000932F499DF80D30124808F00CFD3C
:1050100043F698222C490F4808F006FD2B490D480D
:1050200008F0F8FC2A49184808F0C2FA294916483D
:1050300008F0C6FA75E700BF54740010E87300105A
:10504000260B133EADB60400BEB604008C740010EF
:1050500063B40400847300108B74001092B40400D5
:105060008F740010CDB40400A974001004B50400BE
:10507000957400102CB50400927400105CB5040007
:105080009474001091B5040088740010C7B5040032
:1050900090740010F6B504009874001047B4040032
:1050A0004FB4040026B604009674001054B40400F3
:1050B000C93005004EB6040059B4040057B40400CA
:1050C00061B6040070B6040095B604003B160500F6
:1050D000414E0100254E010073B5234B234CB3F91B
:1050E00000209888224E0A21002592FBF1F262707E
:1050F0009A78A2702570FFF7B7F91E4B0022FFF7D0
:105100001DFA1D4B0022FFF763F8FFF7EFFCC0F319
:105110000723E370194B20711B8819491948A371A3
:105120001A0A627108F076FC14F8012B1548314612
:10513000013508F079FC072DF6D11349114808F024
:1051400069FC0023CDE90033084A104802232946B0
:1051500008F0F9F930B10E490A4802B0BDE87040D4
:1051600008F058BC0B49F7E7905200104552001068
:10517000DCB6040000408F400000E03F8652001083
:10518000CFB60400847300103B160500887400102D
:10519000E4B604000AB4040038B50A4605460C46D5
:1051A0000848094908F040FC08F0BAFD074B5B6865
:1051B00020444FF47A71286059430548BDE83840CF
:1051C00008F073BD84730010F9B604008852001013
:1051D000E873001008B5062200234FF4E1310848B7
:1051E00008F034F90748FFF767FE074800F05CF85D
:1051F000054800F0B7F8BDE80840044800F06CB975
:1052000084730010985200109C520010AC52001091
:10521000F0B51A481A4F1B4E1B4C85B000F0DEF853
:10522000164800F047F83880144800F0E3F81749B2
:1052300002A800F069F9029B3360BDF80C30B3801E
:10524000B388398800EE103A6D462846B8EE400A19
:1052500000F0FAF895E8030084E8030023782BB106
:105260000B48FFF739FFC8200EF05EFC6168084864
:1052700005B0BDE8F040FFF78FBF00BF9C520010A3
:10528000865200109052001088520010AC5200104C
:1052900098520010024B03483C229A7300F00ABA5D
:1052A0009C520010AC520010014808F023BB00BF14
:1052B000CC740010437A827A03F00303022B11D0DE
:1052C000032B14D0012B17BF40F2C2204FF4EF7014
:1052D00050434FF47A7304BF50436423B0FBF3F0A0
:1052E00080B2704740F2D71050430A23F6E740F2ED
:1052F000A3205043F4E7000038B50C46817B1448E6
:10530000154608F031FB2146114808F0DBFA294622
:105310000F4808F0D7FA0E48012108F031FB10F0D1
:10532000FF0F13D10B490C4808F05DFB21460A48DA
:10533000102208F0FDFB0949074808F054FB2146FC
:105340000548BDE83840102208F0F4BB0449F3E7F3
:10535000CC7400100AB70400847300101BB704005B
:1053600021B7040010B5672201210446FFF7C4FFEE
:105370000A200EF0D9FB202204212046FFF7BCFFB3
:105380000A200EF0D1FB204606220521FFF7B4FFCC
:10539000BDE810400A200EF0C7BB000038B5044637
:1053A0000D46817B0C4808F0DFFA29460A4808F0D0
:1053B00089FA0121084808F0E3FAA17B0648012296
:1053C00008F0CFFA044808F05DFA18B1024808F076
:1053D00063FAC0B238BD00BFCC74001038B50546C2
:1053E0000024E1B22846FFF7D9FF285501340B2CE1
:1053F000F7D138BD10B50446FFF7F0FF6378672B8F
:1054000007D0204667220121FFF776FF0A200EF021
:105410008BFB2379202B07D0204620220421FFF785
:105420006BFF0A200EF080FB6379062B09D0204623
:1054300006220521FFF760FFBDE810400A200EF0AC
:1054400073BB10BD00000000F8B500232DED028BEA
:1054500003704FF416734360044610EE100AB0EE6A
:10546000408A0D46FFF712F817A3D3E9002306463A
:105470000F46FFF7D5FA18B14FF4E16363600DE012
:10548000F0EE087AB4EEE78AF1EE10FA0AD5132DA1
:1054900002D84FF49663F1E701232370BDEC028B31
:1054A0002046F8BD0AA3D3E9002330463946FFF76A
:1054B000B7FA0123237008B1132D02D84FF4967365
:1054C000DCE77823DAE700BF666666666666064054
:1054D0006666666666660A4008B5074900F0DCF94C
:1054E00040B90649064808F095FABDE808400E2084
:1054F00008F000BC0349F5E7CC74001037B704008E
:105500008473001047B7040070B52DED028B92B084
:1055100009AA05460846694600F01CF9DDED0E7A39
:10552000264EB2EE047A67EE877A2120FDEEE77A06
:1055300017EE903ADDED057A2B80FCEEE77A17EE58
:10554000903AAB7008F0CCFB4FF4FA700EF0ECFA26
:10555000212008F0C5FB0446194908EE104A3046E0
:1055600008F041FA0A222146304608F0CDFADFED74
:10557000157A1549BAEEC98A304628EE278AF7EE21
:10558000087A28EE278A08F02EFA18EE100AFEF79D
:105590007DFF41EC100B0321304608F083FB0B49E3
:1055A000304608F037FABCEEC88A284618EE103AA2
:1055B000AB8012B0BDEC028B70BD00BF84730010D5
:1055C0005AB704009A99194066B704003C260500B2
:1055D00070477047704710B5044603F081F92046C4
:1055E00010BD10B5044603F07BF9204610BD000045
:1055F0000B4610B5282204460021184601F020F879
:105600000A490B2201F0AEFC0022C2720121C160E6
:10561000616842620022C261054A016182610C2117
:105620004FF080424161026210BD00BF6FB70400BD
:105630000000C8420B4610B5282204460021184637
:1056400000F0FEFF09490B2201F08CFC0022C2721F
:105650000121C16061684262054AC261054A016177
:1056600082610D21044A4161026210BD77B70400D6
:10567000000020C20000AA429A99993E0378DB43B9
:10568000DBB2082213F0800F4FEA430301D083F00E
:105690003103013ADBB2F5D140785840082310F0CD
:1056A000800F4FEA400001D080F03100013BC0B2D2
:1056B000F5D170470022C0E90322426102767047AB
:1056C00070B50C460546164600212022201D00F02C
:1056D000B7FF242323606B8963600D23A3602B68CD
:1056E0002661636170BD70B50C4605461646002103
:1056F0002022201D00F0A4FF242323602B89636057
:105700000D23A3606B682661636170BD1FB5002324
:10571000CDE9003349BAADF80C100123022203A9E8
:10572000C06800F029F905B05DF804FB08B543F244
:105730001751FFF7EBFFBDE80840FA200EF009BA59
:1057400008B548F25D01FFF7E1FFBDE80840012020
:105750000EF0EAB92DE9F34104460E46904608F0F2
:10576000DFFA07462046FFF7E1FF237E33B146F21A
:105770009C012046FFF7CAFF012005E047F66601BD
:105780002046FFF7C3FF0D200EF0CEF9E06801239D
:105790000622694600F03DF905460028ECD068462F
:1057A0009DF80210FFF76AFF814243D10DF103001B
:1057B0009DF80510FFF762FF81423BD1BDF8003034
:1057C0009FED1D7A5BBA9AB241F2171353439B13B4
:1057D000A3F58C53143B07EE903AF8EEE77ABDF848
:1057E0000330C7EE876A5BBA9AB240F27123534323
:1057F0001B0B4BF29801204607EE903AF8EEE77A41
:10580000C4ED006AC7EE876AC4ED016AFFF77EFF48
:10581000B8F1000F04D03A4641462046FFF750FF4A
:1058200026B13A4631462046FFF75DFF284602B0D2
:10583000BDE8F0810025F9E70000C84208B5002264
:105840008068FFF787FF012008BD08B50A46806819
:105850000021FFF77FFF012008BD1FB549BAADF851
:105860000C100021CDE90031134603A90222C068C3
:1058700000F0EEF805B05DF804FB07B5032301AABC
:105880004EF6C871FFF7E9FFBDF8040040BA80B2D8
:1058900003B05DF804FB000070B50446C0680E4616
:1058A00008B103F01DF8102003F01CF8324605463D
:1058B000702100F035F8E5602846012100F04DF830
:1058C000054610B90025284670BD2046FFF72EFF7B
:1058D0002046FFF735FF2046FFF7CFFF20F4F860A2
:1058E0000005000D40F607039842EBD10C2002F0B2
:1058F000F9FF094B036040F2C133C0E90134606134
:105900000C2002F0EFFF054B03604FF44363C0E946
:1059100001342061D7E700BFA4B7040088B70400B2
:1059200042600022027220220170C2607047037A36
:1059300010B504465BB12178606808F015F860681E
:10594000012108F01DF8B0FA80F0400910BD0121D6
:1059500000F003F80028EED1F8E738B504464068B7
:105960000D4607F0C7FF0120207225B12046BDE893
:105970003840FFF7DCBF38BD2DE9F843DDE9089674
:105980001F46C368154632449A420446884602D9E7
:105990000020BDE8F8830178406807F0E5FF7EB994
:1059A000606803682A465B68414698478542EFD1A4
:1059B0006068394607F0E4FFB0FA80F04009E8E794
:1059C000B9F1000FECD06068036832465B68494665
:1059D0009847B042DCD1E3E72DE9F0411546044693
:1059E0000F46D2B20178406807F0B2FF85420BD172
:1059F0000026B54206F1010809D9606803685B69B1
:105A00009847B8554646F4E70020BDE8F0810120EC
:105A1000FBE72DE9F84307468846164699460025D8
:105A2000B54212D2FA68741B944228BF1446331B45
:105A3000AB4294BF4B460023224608EB0501384693
:105A4000FFF7CAFF10B12544EAE70120BDE8F8835B
:105A500073B51D460023CDE900339DF81C30069E2A
:105A60000446FFF789FF40B101233246294620460C
:105A700002B0BDE87040FFF7CCBF02B070BD05F0CA
:105A80009DBF05F0A0BF000013B50B4C23780BB9E8
:105A900000F090F808230B22CDE9003207480923D3
:105AA0000A22002100F052FB00F090FB23780BB992
:105AB0000123237002B010BDC8520010AC83021045
:105AC000BFF34F8F0549064BCA6802F4E0621343E7
:105AD000CB60BFF34F8F00BFFDE700BF00ED00E0DC
:105AE0000400FA05292070470EF057B8F8B50C46A7
:105AF0002F2C9DF81850079F0646114605DC631CA5
:105B0000047002D012B1012A12D0F8BD012D0DD0BF
:105B1000022D01D025B9022120460EF093F9B5726D
:105B200020460021BDE8F8400EF08AB92946F3E787
:105B300020460EF085F9391E204618BF0121BDE828
:105B4000F8400EF081B938B5044690F900002F28CE
:105B50001D4615DCA3B1022923610DD003290DD008
:105B600001290DD103210EF073F994F900002946A3
:105B7000BDE838400EF06EB90521F4E70621F2E7E2
:105B800038BD90F900002F2806DC431C04D00039F2
:105B900018BF01210EF058B9704708B590F9000000
:105BA0002F2804DC431C02D00EF050F908BD002061
:105BB000FCE7000010B5054C23782BB904490220FE
:105BC0000EF064FA0123237010BD00BFC95200100B
:105BD000F91B040010B502200EF060FA064B1A689B
:105BE0001860044600219442596002D205F0C4FABC
:105BF0000444204610BD00BFD0520010014B18686D
:105C0000704700BFD05200100A2070470EF03CBA17
:105C10000EF038BA02200EF03FBA000007B501902E
:105C2000022005F071FA044A0199022003B05DF8E0
:105C300004EB0EF02FBA00BFD0520010FFF7EEBFFA
:105C4000022005F077BA000008B5034B02201A685D
:105C500000230EF027FA08BDD052001070B506469A
:105C600002200EF01DFA4FF47A72002305460C460E
:105C7000FEF75CFF0023328028464FF47A722146FB
:105C8000FEF754FF70BD10B50C460CF031FD2046F8
:105C9000BDE810400CF03EBD38B50C4605460CF092
:105CA00021FD28600CF030FD206038BD704708B53C
:105CB000012012F0B7FF002008BD704700BEFDE7CD
:105CC000FEE70000BFF34F8F0549064BCA6802F498
:105CD000E0621343CB60BFF34F8F00BFFDE700BF0F
:105CE00000ED00E00400FA0570B50C4D0C4C641B8F
:105CF000A4100026A64207D10A4D0B4C641BA41029
:105D00000026A64205D170BD55F8043B98470136E0
:105D1000F0E755F8043B98470136F2E70000000031
:105D200000000000ACB20400C0B2040008B5FFF7E8
:105D3000C9FF08B5FFF7C6FF13B50378092B11D8C3
:105D4000DFE803F0126A909910A1A105A5A90479D2
:105D500020460CF027FC20460CF0CCFB002120460E
:105D60000CF028FC02B010BD01200CF01BFC012837
:105D700023D100200CF016FC0128F3D0484B1B78EF
:105D80001BB142F2107004F019FC00200EF0AAFBC7
:105D90000028E7DD012201A900200EF069FA0020A9
:105DA0000CF000FC04460028EFD10EF079FB58BB44
:105DB0009DF804100CF00AFBE7E7394B1B781BB188
:105DC00042F2107004F0FAFB01200EF08BFB002869
:105DD000CFDD012201A910460EF04AFA01200CF095
:105DE000E1FB0028F0D101200EF05AFB28B99DF804
:105DF000041001200CF0EAFAE6E70128E4D19DF84E
:105E000004100EF0A3FADFE70128BED19DF80410BC
:105E100020460EF09BFAB8E703200CF0C3FB0128E4
:105E2000A0D003200EF05EFB00289BDD012201A91B
:105E300003200EF01DFA03200CF0B4FB0028F0D173
:105E400003200EF02DFB28B99DF8041003200CF060
:105E5000BDFAE6E70128E4D19DF8041003200EF016
:105E600075FADEE70F4B1B6E03B1984721F0D0F8AF
:105E700007F074FF76E70C4B1B68002B3FF472AF02
:105E8000406898476EE740680EF0F4FB6AE7002030
:105E90000EF012F966E740680DF0EFFF62E700BF11
:105EA000DC520010E81A0500102A021030B5474BEA
:105EB000474A1B68474999B000240193464B009319
:105EC000204640F2CD13CDE903441EF0BFFB0EF097
:105ED000C5FB0DF065FE0DF065FD0CF03BFC2346A7
:105EE0000146054603222046CDE900440EF0E6F8BF
:105EF00023462946CDE90044032201200EF0DEF8B6
:105F000036494FF478231A68501C0ED002F0030073
:105F1000012810D022F00302B2F5801F0BD2043307
:105F20008B42F0D11B68013305D108AA08214FF438
:105F3000782012F0EBFD0DF08FFD03F055FB0DF016
:105F4000C5FD082103A808F033F99DF813309DF82A
:105F500011202349009308A89DF8123000F0E2FFB9
:105F600008A8FEF7CDF8C1B208A80DF083FD0C21FA
:105F700005A80CF0C7FC05A80DF07EFD002103204C
:105F80000CF018FB00240322234629461046CDE9D5
:105F900000440EF093F80CF0D1FA0CF0C3FC09F0B9
:105FA0007BFEE5B228460CF0FDFA10B928460CF04D
:105FB000A1FA0134042CF4D10EF034FB0DF0BAF93F
:105FC000012801D10AF0D4F919B030BD682C0010B5
:105FD000D8B7040059B8040061B8040024800F0049
:105FE00071B8040008B5044B1B6E03B19847BDE8B7
:105FF00008400EF025BB00BFE81A0500F8B5FFF712
:1060000055FF02F089FC1D480EF0F6F808F0B6F9CD
:10601000012822D0022822D010B919480EF0ECF83D
:10602000184F194D194EFFF7DDFF3C78CCB92B788E
:1060300083B142F210700DF077FD234607223146FE
:1060400020462C7006F0C2FF23460722314601206D
:1060500006F0BCFF02F062FCE5E70D48DEE70D4804
:10606000DCE70CF0E3FA0028DDD02B7803F0FF002A
:10607000002BD8D10DF0C6FFD5E700BF82B80400D1
:1060800096B80400DC520010BC600010B9B80400DF
:10609000A2B80400ADB8040007B5FFF725FE1EF056
:1060A000C9FA234B234A2449009300204FF421735B
:1060B0001EF0CCFA0021084610F0E8F9024620B1A3
:1060C0001C4940F28E201EF0E9FA1C4810F00EF92F
:1060D000024620B117494FF425701EF0DFFA10F088
:1060E00027F9024620B1134940F296201EF0D6FA55
:1060F00012F0F8FD012012F0FDFD12F0E1FB024666
:1061000020B10C4940F2A7201EF0C8FA12F098FC0A
:106110000B4B019301230B4900934FF48052002352
:10612000094814F013F814F01BF9FFF7CBFD00BF7A
:10613000C1B80400D8B7040059B8040004FC040036
:10614000D8520010DAB80400FD5F01002DE9F341D8
:106150000C460025064600F8044B02249DF92080D9
:1061600011461F4622462B46CDE900452BF044FB45
:106170002B462246394606F11800CDE900452BF0A2
:106180003BFB06F12C00CDE900452B46224641465B
:106190002BF032FB012002B0BDE8F0410EF012BA44
:1061A0007FB501220023ADF80E108DF81730019352
:1061B00000920DF117030DF10E0110460EF01AFAC0
:1061C0009DF8170007B05DF804FB000073B5174E8B
:1061D0000024012523462A463046CDE900450B21FF
:1061E0002BF00AFB23462A46A6F1A400CDE9004580
:1061F00011212BF001FB23462246A6F19000CDE9A8
:10620000004410212BF0F8FA23462246A6F17C0028
:10621000CDE900440F212BF0EFFA2B46022229464C
:10622000122002B0BDE870400DF008BEEC830210F1
:1062300003460322014801212BF0E6BA70830210C5
:106240004FF4207101202BF001B90A207047012082
:106250002BF0F0B8014B1878704700BFDD520010EA
:10626000014B1870704700BFDD52001010B50A4C8A
:106270000A202BF0BFFA002120462BF0C7FA142089
:106280002BF0B8FA204601212BF0C0FABDE81040EF
:106290000A202BF0AFBA00BF4883021010B5034CA0
:1062A00020462BF0B5FA0128FAD010BD5C8302100D
:1062B00038B50C4C00212046A4F140052BF0A6FA7D
:1062C000C0212846FFF76CFF00212846FFF768FF32
:1062D000012120462BF09AFAFFF7E0FF024B012242
:1062E0001A7038BDEC830210DD520010F8B5154667
:1062F00006460C462AF092FE0E480F4F00212BF066
:1063000085FA0D483146FFF74BFF2544AC4209D1D1
:10631000084801212BF07AFA842E09D0BDE8F84014
:10632000FFF7BCBF14F8011B3846FFF739FFEDE754
:10633000F8BD00BFEC830210AC830210F8B515461F
:1063400006460C462AF06AFE0F48104F00212BF03B
:106350005DFA31460D48FFF723FF0C480021FFF797
:106360001FFF2544C6B2AC4207D1074801212BF0DC
:106370004DFAFFF793FF3046F8BD00213846FFF78E
:106380000FFF04F8010BEEE7EC830210AC83021060
:1063900070B5154606460C462AF040FE104800210E
:1063A0002BF034FA0D210F48FFF7FAFE310A0D48A1
:1063B000FFF7F6FEF1B20B480A4EFFF7F1FE254457
:1063C000AC4207D1064801212BF020FABDE870400D
:1063D000FFF764BF14F8011B3046FFF7E1FEEFE75B
:1063E000EC830210AC83021007B501228DF8071070
:1063F0000DF10701FFF7CCFF03B05DF804FB0000CF
:1064000070B5154606460C462AF008FE13480021D2
:106410002BF0FCF91D211248FFF7C2FE310A10488B
:10642000FFF7BEFEF1B20E480D4EFFF7B9FE0C4865
:106430000021FFF7B5FE2544AC4207D107480121F2
:106440002BF0E4F9BDE87040FFF728BF002130468B
:10645000FFF7A6FE04F8010BEEE700BFEC83021085
:10646000AC83021007B501220DF10701FFF7C8FF49
:106470009DF8070003B05DF804FB0000F8B5144672
:1064800005460E462AF0CAFD0F48104F00212BF09A
:10649000BDF90E210D48FFF783FE29460B48FFF793
:1064A0007FFE0025A4B2ABB29C4207D8064801216A
:1064B0002BF0ACF9BDE8F840FFF7F0BE715D38464F
:1064C000FFF76EFE0135EEE7EC830210AC8302109D
:1064D000F8B5144605460E462AF0A0FD1248134FA3
:1064E00000212BF093F91E211048FFF759FE294691
:1064F0000E48FFF755FE0D480021FFF751FE00251D
:10650000A4B2ABB29C4207D8074801212BF07EF918
:10651000BDE8F840FFF7C2BE00213846FFF740FE55
:1065200070550135EDE700BFEC830210AC8302101B
:1065300002212AF0D9BF70477047704701482BF0FD
:1065400067B900BF70830210074B0849186843F20F
:10655000390201FB002018606FF00043B0FBF3F339
:10656000C3EBC373C01A7047482C00106D4EC64170
:10657000014B1860704700BF482C001038B5054625
:106580000C46FFF7E1FF611B013190FBF1F303FBC8
:106590001100284438BD01380A44914200D17047A7
:1065A00011F8013B00F8013FF7E710440A4491421B
:1065B00000D1704711F8013B00F8013DF7E70244B4
:1065C000904200D1704700F8011BF9E730B530B1B7
:1065D0000A4D01444FF0FF33814201D1D84330BD11
:1065E00010F8012B5340082243F30004013A2C40D9
:1065F00092B284EA5303002AF6D1EDE72083B8ED86
:106600004FF0FF307047000030B591B10A4D0A4499
:10661000914200D130BD11F8013B5840082340F3AE
:106620000004013B2C409BB284EA5000002BF6D1C1
:10663000EEE70846EEE700BF2083B8EDC0437047A1
:1066400002440346934200D1704703F8011BF9E767
:106650002DE9FF4755EC104B002D0E4619462B46F1
:10666000BBBF05F100431D4600232D230B700D9B7E
:10667000DDF830A0914623F02008BCBF2246144626
:10668000B8F1460F05D0B8F1450F00D1013602210F
:1066900000E0032103AB019302AB009345EC104BE8
:1066A0005346324600F0FCFCB8F1470F074602D1D2
:1066B00019F0010F22D0B8F1460F07EB060910D1EF
:1066C0003B78302B0AD10022002320462946FEF7D2
:1066D0009DF918B9C6F10106CAF80060DAF8003071
:1066E00099440022002320462946FEF78FF908B17D
:1066F000CDF80C903022039B4B4507D3039B0E9A99
:10670000DB1B3846136004B0BDE8F087591C0391C9
:106710001A70F0E7F7B503460029B8BF494203F8FD
:10672000022BB4BF2D222B22092942702ADD0DF144
:106730000704A4460A27A6460A4691FBF7F607FB7C
:1067400016153035632A04F1FF340EF8015C31462A
:10675000F1DC3031AEF1020504F8011C441C29467D
:1067600061450AD30DF10902A2EB0E02654588BF0F
:1067700000221344181A03B0F0BD11F8012B04F8DD
:10678000012FEDE7302330318370C170031DF1E735
:106790002DE9F04F2DED028B8DB00C46DDF86080B9
:1067A00016461F46054601F059FAD0F800A050469B
:1067B000FDF7A6FC00230A9323680593D8F8003060
:1067C00094F818B0073323F0070303F10802C8F860
:1067D0000020D3E90023C4E91223D4E9128929F067
:1067E00000430793CDF8188008EE100A9F4BDDE9AF
:1067F00006014FF0FF32FEF73BF988BBDDE90601E9
:106800009A4B4FF0FF32FEF715F948BB00220023E8
:1068100040464946FEF704F910B12D2384F8433071
:10682000934B9448BBF1470F94BF9846804603238F
:106830002361059B23F0040222604FF000090097BA
:1068400033460BAA2146284600F0D8F9013040F023
:1068500090804FF0FF300DB0BDEC028BBDE8F08FA3
:1068600042464B4640464946FEF702F940B14B4688
:10687000002BBCBF2D2384F843307F487F4BD1E7EA
:1068800063680BF0DF0206925A1C3FD10623636057
:10689000059B616843F48062002303930AABCDE952
:1068A00001B309AB49EC108B009322600DF1230377
:1068B0002846FFF7CDFE069B0999472B804608D155
:1068C000C81C02DB6368994241DDABF1020B5FFA41
:1068D0008BFBBBF1650F20D801395A4604F15000FB
:1068E0000991FFF717FF0A9A1318012A81462361BD
:1068F00002DC2268D20701D5013323619DF82330E1
:10690000002B9CD02D2384F8433098E7069A472A21
:10691000BED1002BBCD10123B9E7BBF1660F18D162
:10692000002963680BDD216113B92268D00702D505
:1069300001330B442361A1654FF00009DEE713B971
:106940002268D20701D50233F4E70123F2E74FF0C2
:10695000670B0A9B994205DB23682161D807EAD5BA
:106960004B1CE7E70029D4BFC1F102020122134406
:10697000E0E723685A0507D4236942463146284692
:10698000B84701302CD164E7BBF1650F40F2E080DD
:10699000D4E9120100220023FEF738F8002834D091
:1069A000374A012331462846B84701303FF451AFFA
:1069B000DDE909239A4202DB2368D80710D518EED7
:1069C000103A524631462846B84701303FF441AFAD
:1069D0004FF0000804F11A090A9B013B434509DC0A
:1069E00023689B0700F10581E0680B9B9842B8BFC4
:1069F000184630E701234A4631462846B847013059
:106A00003FF427AF08F10108E6E7099B002B39DCCA
:106A10001B4A012331462846B84701303FF419AFDD
:106A2000DDE90923134302D12368D907D8D518EE2D
:106A3000103A524631462846B84701303FF409AF74
:106A40004FF0000904F11A0A099B5B424B4501DC37
:106A50000A9B92E70123524631462846B847013047
:106A60003FF4F7AE09F10109EEE700BFFFFFEF7F4A
:106A7000DEB90400E2B90400EAB90400E6B9040092
:106A80006ED604000A9AA36D9A42A8BF1A46002A3D
:106A9000914637DC4FF0000B29EAE97904F11A023C
:106AA000A36D0593A3EB09035B4533DCDDE9092303
:106AB0009A423BDB2368DA0738D40A9A059B099986
:106AC000D31AA2EB01099945A8BF9946B9F1000F65
:106AD00035DC4FF0000829EAE97904F11A0ADDE90A
:106AE00009239B1AA3EB090343457FF779AF0123E1
:106AF000524631462846B84701303FF4AAAE08F165
:106B00000108ECE71346314642462846B8470130B3
:106B1000C0D19EE60123314628460592B847013090
:106B20003FF497AE059A0BF1010BB9E718EE103A56
:106B3000524631462846B8470130BED189E6059A0B
:106B40004B46424431462846B8470130C1D180E621
:106B50000A9A012A01DCDB0738D501234246314677
:106B60002846B84701303FF474AE18EE103A52464A
:106B700031462846B84701303FF46BAED4E91201E4
:106B800000220023FDF742FFD8B90A9B08F1010259
:106B9000013B31462846B84701300ED159E6012362
:106BA000524631462846B84701303FF452AE08F10C
:106BB00001080A9B013B4345F1DC4B4604F15002BE
:106BC000DCE64FF0000804F11A0AF2E7012342461E
:106BD000DFE701234A4631462846B84701303FF4F3
:106BE00038AE08F10108E3680B995B1A4345F0DC05
:106BF000FAE64FF0000804F11909F4E72DE9F0472F
:106C0000164699468A680B69DDF820809342B8BF22
:106C10001346336091F8432007460C460AB101330E
:106C200033602368990642BF3368023333602568B6
:106C300015F0060506D104F1190AE36832689B1ABB
:106C4000AB4226DC94F84320131E226818BF0123B0
:106C500092062BD404F1430249463846C04701301E
:106C60001ED02368E568326803F00603042B08BFD2
:106C7000AD1AA36822690CBF25EAE5750025934289
:106C8000C4BF9B1AED1800261A34B5421AD1002051
:106C900008E00123524649463846C047013003D137
:106CA0004FF0FF30BDE8F0870135C6E7E1185A1C08
:106CB000302081F84300224494F8451082F84310B4
:106CC0000233C7E70123224649463846C047013010
:106CD000E6D00136D9E700002DE9FF470C46914682
:106CE000277E0C99782F80469A4604F1430207D8F4
:106CF000622F0AD8002F00F0D880582F00F0A38010
:106D000004F1420684F842703AE0A7F16303152BC0
:106D1000F6D801A050F823F0716D0100856D0100D7
:106D2000016D0100016D0100016D0100016D0100A7
:106D3000856D0100016D0100016D0100016D010013
:106D4000016D0100916E0100B56D0100736E0100CF
:106D5000016D0100016D0100B36E0100016D0100C4
:106D6000B56D0100016D0100016D01007B6E010038
:106D70000B681A1D1B680A6004F1420684F8423051
:106D80000123A3E0256808682E0600F104030AD554
:106D900005680B60002D03DA2D236D4284F8433023
:106DA0005E480A2319E015F0400F05680B6018BF14
:106DB0002DB2EFE70B682568181D0860280601D57D
:106DC0001D6802E06906FBD51D8854486F2F0CBF73
:106DD00008230A23002184F843106668A660002E69
:106DE000A2BF216821F0040121600DB9002E4DD011
:106DF0001646B5FBF3F103FB1157C75D06F8017D9D
:106E00002F46BB420D46F4D9082B0BD12368DF0770
:106E100008D5236961689942DEBF302306F8013C3A
:106E200006F1FF36921B2261CDF800A04B4603AA63
:106E300021464046FFF7E2FE01304CD14FF0FF30D3
:106E400004B0BDE8F087354884F8457023680E68C3
:106E50001F0656F8045B0E6014D5D90744BF43F0F3
:106E6000200323601DB9236823F02003236010232F
:106E7000B0E7236843F0200323607823284884F890
:106E80004530E3E75E0648BFADB2E6E71646BBE72E
:106E90000B68266860691D1D0D6035061B6801D5ED
:106EA000186002E07106FBD51880002323611646A6
:106EB000BAE70B681A1D0A601E6862680021304636
:106EC000FDF726F908B1801B606063682361002329
:106ED00084F84330A8E72369324649464046D04704
:106EE0000130ABD023689B0713D4E068039B984222
:106EF000B8BF1846A4E70123324649464046D0476A
:106F000001309BD00135E36803995B1AAB42F2DC98
:106F1000EBE7002504F11906F5E700BFEEB9040020
:106F2000FFB904000EB400B59CB01DAB02900690F2
:106F30006FF00041094807910491094953F8042B67
:106F400005910068019302A901F0CCFA029B00228E
:106F50001A701CB05DF804EB03B070476C2C001085
:106F60000802FFFF10B50139034632B111F8014F95
:106F700003F8014B013A002CF7D11A440021934247
:106F800000D110BD03F8011BF9E72DE9F74F0369A4
:106F90000C69A3420746C0F28180013C01F114084C
:106FA00000F1140505EB8403019358F8243055F8DB
:106FB000242001339A424FEA840B08EB8409B2FB88
:106FC000F3F631D34FF0000E4046AC46F24650F88F
:106FD000042B93B206FB03E34FEA134E9BB2AAEBDA
:106FE0000303120CDCF800A006FB02E213FA8AF39A
:106FF0004FEA124E1FFA82FADCF80020CAEB124266
:1070000002EB23429BB243EA024381454CF8043B26
:107010004FEA224ADBD255F80B302BB9019B043BD7
:107020009D421A462ED33C61384601F064F8002890
:1070300024DB013628464FF0000C58F8042BD0F81A
:1070400000E093B2ACEB0303120C13FA8EF3C2EB25
:107050001E4202EB23429BB243EA0243C14540F881
:10706000043B4FEA224CE8D255F8242005EB840378
:1070700022B9043B9D421A460AD33C61304603B014
:10708000BDE8F08F1268043B002ACCD1013CC7E771
:107090001268043B002AF0D1013CEBE70020EEE748
:1070A0002DE9F04F2DED028B57EC106B95B0456A32
:1070B000DDF880800591CDE90267044609920F93BF
:1070C0003DB9102000F0CEFDC0E9015560620560B9
:1070D000C560636A196851B15A684A6001239340D8
:1070E0008B60204600F010FE636A00221A603B1E8F
:1070F000B9BF23F0004303930023C8F80030DDF844
:107100000C90B74BBCBF0122C8F8002033EA09033A
:107110001BD10F9A42F20F731360C9F31303334369
:1071200000F07585219B63B9AE4B25E0AE4B009313
:107130000833219A1360009815B0BDEC028BBDE8AE
:10714000F08FA84B00930333F3E79DED027B002201
:1071500051EC170B00238DED0A7BFDF757FC8046A1
:1071600060B10F9A01231360219B002B00F04C8526
:107170009E4B219A1360013B0093DCE79DED0A0BC7
:1071800012AA13A9204601F048F8C9F30A5582460D
:10719000002D7ED00B9BCDF84080C3F31303DDE9B7
:1071A0000A6743F07F5747F44017A5F2FF35904B2D
:1071B000002230463946FDF709F883A3D3E90023BE
:1071C000FDF7BCF982A3D3E90023FDF701F80646D9
:1071D00028460F46FDF748F97FA3D3E90023FDF7C2
:1071E000ADF902460B4630463946FCF7F1FF06463C
:1071F0000F46FDF753FC00228146002330463946F6
:10720000FDF70EFC48B14846FDF72EF932463B46E5
:10721000FDF7FCFB08B909F1FF39B9F1160F56D893
:10722000744B03EBC903D3E90023DDE90A01FDF741
:10723000F7FB00284DD009F1FF3900230E93129B74
:107240005D1B6B1E049343BF0023C5F1010804932B
:107250004FF00008B9F1000F3DDB049BCDF83490EE
:107260004B44049300230693059B092B00F29A805C
:10727000052BC4BF043B0593059BA3F10203CCBFC0
:1072800000250125032B00F29980DFE803F02C7D17
:107290007B89DDE912531D4405F23243202BC1BF27
:1072A000C3F1400305F2124009FA03F326FA00F095
:1072B000DABFC3F1200306FA03F01843FDF7C4F860
:1072C00001230646A1F1F877013D10936FE70123F2
:1072D000B4E70E90B3E7C9F1000306930023A8EBCF
:1072E00009080D93C0E700230893099B002B00F3C6
:1072F00085804FF0010BCDF804B05B46CDF824B08B
:10730000666A00227260042202F1140098427168D9
:107310007AD9204600F0C4FC636A30601B68009391
:10732000019B0E2B00F2F580002D00F0F280B9F1E8
:10733000000F7DDD2F4A09F00F0302EBC30393ED2D
:10734000007B19F4807F4FEA2917B0EE478AF0EEF0
:10735000678A5DD0284BDDE90A01D3E90823FDF7F0
:1073600017FACDE9020107F00F070325224E002F7F
:1073700050D1DDE9020153EC182BFDF709FACDE9F4
:1073800002016FE00123AFE700230893099B09EB9B
:10739000030B0BF10103012B0193B8BF0123AFE7EE
:1073A0000123F2E701250023059308954FF0FF3BE9
:1073B0000022CDF804B012230992A1E7012308931B
:1073C000F4E700BFAFF3008061436F63A787D23F4C
:1073D000B3C8608B288AC63FFB799F501344D33FC4
:1073E0000000F07F19BA040010BA04006FD6040040
:1073F0000000F83F48BA040020BA0400DDF824B0C9
:10740000CDF804B05B467BE70131716052007BE749
:107410000225ABE7F90708D551EC180BD6E9002394
:10742000FDF78CF841EC180B01357F1008369EE70C
:1074300000F0AB80C9F10006AA4BAB4F06F00F027B
:1074400003EBC203D3E90023DDE90A01FDF776F877
:10745000CDE90201361100230225002E40F08A807A
:10746000002B8CD10E9B002B00F09180DDE9026790
:107470009E4B002230463946FDF7D2FA002800F034
:107480008680019B002B00F08280BBF1000F3CDD69
:1074900009F1FF3307930022954B30463946FDF73B
:1074A0004DF8CDE902010135CDF830B0DDE90267D4
:1074B0002846FCF7D9FF32463B46FDF73FF88D4B97
:1074C0000022FCF785FEA1F15073CDE90201039380
:1074D0000C9B002B60D1884B002230463946FCF7CC
:1074E00075FEDDE9022306460F46FDF7B7FA0028D0
:1074F00040F09982DDE90221304601F1004339462E
:10750000FDF78EFA002840F08B82DDE90A23CDE9F1
:107510000223139B002BC0F25B81B9F10E0F00F325
:107520005781704B03EBC90393ED007B099BB0EED1
:10753000478AF0EE678A002B80F2E280019B002BE5
:1075400000F3DE8040F06C826B4B51EC170B002295
:10755000FCF7F4FFDDE90223FDF776FA019E3746DA
:10756000002840F04282009D312305F8013B09F1DB
:1075700001093EE2F20705D5D7E90023FCF7DEFF5B
:10758000013501237610083767E702256AE7019B7A
:10759000CDF81C900C9389E700990C980C9A514BEC
:1075A0009DED027B014402910899B0EE478AF0EE0E
:1075B000678A03EBC20353E90223002945D04F49F0
:1075C0000020FDF7E5F853EC182BFCF7FFFD009DBC
:1075D00041EC180B39463046FDF760FA0C90FCF789
:1075E00043FF02460B4630463946FCF7EFFD0C9B45
:1075F000303305F8013B53EC182B06460F46FDF7D8
:107600000FFA002865D132463B4638490020FCF786
:10761000DDFD53EC182BFDF703FA002840F0B8808D
:10762000029B9D423FF471AF314B51EC180B00228D
:10763000FCF784FF2E4B41EC180B002230463946F4
:10764000FCF77CFF06460F46C4E751EC170BFCF72E
:1076500075FF029B009D0C9341EC180B3946304698
:10766000FDF71CFA1190FCF7FFFE02460B46304670
:107670003946FCF7ABFD119B303305F8013B029B0B
:107680009D4206460F464FF0000225D11B4B51ECA0
:10769000180BFCF79DFD02460B4630463946FDF7B8
:1076A000DDF9002874D153EC182B14490020FCF7A5
:1076B0008DFD02460B4630463946FDF7B1F90028EC
:1076C0003FF423AF0C9D6B1E0C9315F8013C302B3F
:1076D000F8D0DDF81C9049E0054BFCF72FFF06467B
:1076E0000F46BBE748BA040020BA04000000F03F90
:1076F0000000244000001C40000014400000E03F57
:10770000DDE90267009D53EC182B30463946FDF742
:107710003FF8FDF7C3F98046FCF7A6FE53EC182BA3
:10772000FCF70CFF02460B463046394608F130069E
:10773000FCF74CFD05F8016B009E019FAE1BB742A4
:1077400002460B4637D1FCF743FD53EC182B064697
:107750000F46FDF783F9C8B953EC182B304639466C
:10776000FDF754F910B118F0010F0FD12046514622
:1077700000F0CAFA00232B700F9B09F1010018607A
:10778000219B002B3FF4D7AC1D60D4E4CDF81C90B6
:107790002B461D4613F8012D392A08D1009A9A422A
:1077A000F7D1079A00990132079230220A701A78AD
:1077B00001321A708DE79E4B0022FCF7BFFE0022BB
:1077C000002306460F46FDF721F900289BD0CDE7A0
:1077D000089A002A00F0C680059A012A00F3AA80C0
:1077E000109A002A00F0A28003F23343069E454619
:1077F000049A01211A4420469844049200F029FB7F
:107800000746002D0BDD049B002B08DDAB42049ADC
:10781000A8BF2B46A8EB0308ED1AD31A0493069BC6
:10782000FBB1089B002B00F0A180002E11DD394632
:107830003246204600F0B2FB52460146074620463B
:1078400000F010FB51460790204600F05DFA079BC0
:107850009A46069B9A1B04D05146204600F09EFB98
:1078600082460121204600F0F4FA0D9B002B0646CB
:107870007EDD1A460146204600F090FB059B012B59
:10788000064678DD00230693336906EB8303186907
:1078900000F08FFAC0F12000049B184410F01F0084
:1078A00000F08880C0F12003042B40F38180C0F1F8
:1078B0001C00049B0344804405440493B8F1000F6A
:1078C00005DD51464246204600F0B6FB8246049B49
:1078D000002B05DD31461A46204600F0ADFB06467A
:1078E0000E9B002B68D03146504600F004FC002867
:1078F00062DA002351460A22204600F01CFA089B57
:1079000009F1FF398246002B00F0888139460023B7
:107910000A22204600F00FFABBF1000F074600F3E1
:107920008F80059B022B40F38B804DE0129BC3F1AF
:1079300036035BE7019B5E1E069BB342BFBF069BFF
:107940000696F21A0D9BB6BF9B189E1B0D93019BCA
:10795000B8BF0026002BB5BFA8EB0305019B002391
:10796000454645E7069E089F45464AE7069A73E75F
:10797000059B012B18DC029BB3B9039BC3F31303D4
:10798000A3B9039B23F000431B0D1B052BB1049BE4
:107990000133049308F10108012306930D9B002B8A
:1079A0007FF472AF012077E70023F6E7029BF4E74C
:1079B00084D018461C307CE7019B002B3ADC059BE9
:1079C000022B37DDDDF804B0BBF1000F0DD13146DD
:1079D0005B460522204600F0AEF9014606465046B9
:1079E00000F089FB00283FF7BEAD099B009D6FEAC0
:1079F00003094FF000083146204600F085F9002FBA
:107A00003FF4B4AEB8F1000F05D0B84503D04146FD
:107A1000204600F079F93946204600F075F9A5E6D0
:107A200000263746E1E70C9EDDF81C9037469AE5C4
:107A300000002440089BDDF804B0002B00F0F58026
:107A4000002D05DD39462A46204600F0F5FA0746A6
:107A5000069B002B55D07968204600F021F93A6941
:107A600002320546920007F10C010C3000F00AF9D1
:107A700001222946204600F0DFFA009B01330193E2
:107A8000009B5B440793029B03F00103B8460693F7
:107A90000746019B3146504603F1FF3BFFF775FA5D
:107AA00003463033029041465046089300F023FBD2
:107AB0003A4604903146204600F039FBC268089BE4
:107AC000054602BB0146504600F015FB089B0246E6
:107AD00029462046CDE9083200F016F9059B099A9F
:107AE000019D43EA0201069B0B43089B0DD1392BF4
:107AF00027D0049A002A01DD029B31338BF8003035
:107B000079E73846B9E70122E2E70499002904DB66
:107B1000059801430698014320D1002AEEDD514625
:107B200001222046019300F087FA3146824600F098
:107B3000E2FA0028019B02DCE0D1DA07DED5392B1E
:107B4000DAD139238BF800302B461D46013B15F85E
:107B5000012C392A50D001321A704CE7002A03DD7B
:107B6000392BEED00133C9E7019A079902F8013C9D
:107B70008A422AD0514600230A22204600F0DBF830
:107B8000B84582464FF000034FF00A0241462046B6
:107B900007D100F0D0F880460746019B01330193DE
:107BA00077E700F0C8F83946804600230A222046CD
:107BB00000F0C1F80746F0E7BBF1000F009ACCBF18
:107BC0005D46012515444FF000085146012220462C
:107BD000019300F031FA3146824600F08CFA002819
:107BE000B2DC02D1019BDB07AED42B461D4613F855
:107BF000012D302AFAD0FEE6009A9A42A5D131230F
:107C000009F101091370F6E6124BFFF7B5BA219B93
:107C1000002B7FF48BAA104BFFF7AEBABBF1000F1D
:107C200003DC059B022B3FF7CFAE009D314650464B
:107C3000FFF7ABF900F1300305F8013B009AAA1AEF
:107C40009345B9DD514600230A22204600F073F81F
:107C50008246EBE76ED6040010BA04000048704775
:107C6000C02D0010024B0146186800F085BB00BF14
:107C70006C2C0010024B0146186800F02DBB00BFB1
:107C80006C2C00100A44914200F1FF3300D1704780
:107C900010B511F8014B03F8014F9142F9D110BD15
:107CA00070B5466A04460D463EB91020FFF7DAFF6C
:107CB000C0E9016660620660C660666AF36883B107
:107CC000636ADB6853F82500B8B9012101FA05F6AB
:107CD000721D9200204600F0F0FA60B1C0E9015632
:107CE0000EE021220421204600F0E7FA636AF060EA
:107CF000DB68002BE4D1002070BD026843F825202A
:107D00000023C0E90333F7E770B5466A05460C4621
:107D10003EB91020FFF7A6FFC0E901666862066061
:107D2000C6603CB16B6A6268DB6853F82210216060
:107D300043F8224070BD2DE9F0410E690746984690
:107D40000C4601F1140000230568A9B202FB018171
:107D50004FEA114C2D0C02FB05C589B2013301EB32
:107D600005419E4240F8041B4FEA1548ECDCB8F18F
:107D7000000F1BD0A368B34212DC616838460131A2
:107D8000FFF78EFF2269023204F10C0105469200D2
:107D90000C30FFF777FF21463846FFF7B5FF2C463A
:107DA00004EB86030136C3F8148026612046BDE843
:107DB000F081030C1B04D3B90004102310F07F4F93
:107DC00004BF0002083310F0704F04BF00010433F9
:107DD00010F0404F04BF80000233002805DB10F094
:107DE000804F03F1010308BF20231846704700238A
:107DF000E4E7036813F0070201460BD0DA0724D446
:107E0000980749BF5B089B0801200B605CBF0B60B3
:107E10000220704798B2B0B91B0C102013F0FF0F6E
:107E200004BF1B0A08301A0704BF1B0904309A0755
:107E300004BF9B080230DA0703D45B0800F101009D
:107E400005D00B6070471046E8E7002070472020FF
:107E5000704710B50C460121FFF722FF0122446153
:107E6000026110BD2DE9F04F15460A692B699A424F
:107E7000B8BF0B460C46BCBF2C461D462769D5F83B
:107E80001090A368616807EB0906B342B8BF0131DF
:107E900085B0FFF705FF00F1140101EB86080B46E2
:107EA000002243451DD304F1140305F1140203EB32
:107EB000870702EB890302933B1B153B23F0030367
:107EC000043304F11505AF4238BF04230193029B2C
:107ED0000392934208D8002E5ADC066105B0BDE833
:107EE000F08F43F8042BDCE7B2F800A0BAF1000FE2
:107EF00024D004F1140E89464FF0000C5EF8045BA8
:107F0000D9F800B0ABB21FFA8BFB0AFB03B34FEA00
:107F1000154BD9F8005063444FEA154C0AFB0BC5CA
:107F200005EB13459BB243EA0543774549F8043B0B
:107F30004FEA154CE2D8019B41F803C0039BB3F80C
:107F400002900432B9F1000F20D00B6804F1140C38
:107F50008E464FF0000ABCF80050BEF802B009FB94
:107F600005B5AA449BB243EA0A434EF8043B5CF8C9
:107F7000043BBEF800501B0C09FB035303EB1A43F0
:107F800067454FEA134AE6D8019D4B5104319EE7FD
:107F900058F8043D002BA0D1013E9CE72DE9F843A1
:107FA000154612F0030206460F4607D0214C013A4F
:107FB000002354F82220FFF7BEFE0746AD1035D04F
:107FC000746A3CB91020FFF74DFEC0E901447062AD
:107FD0000460C460D6F82480D8F808404CB940F258
:107FE00071213046FFF735FF0023C8F8080004462A
:107FF00003604FF00009EB070AD5394622463046A8
:10800000FFF730FF394680463046FFF77DFE474692
:108010006D100BD0206838B9224621463046FFF754
:1080200021FF2060C0F800900446E4E73846BDE830
:10803000F88300BF10BB04002DE9F0470C464968E7
:10804000236903EB6218A368074691464FEA621A58
:1080500008F10106B3423FDB3846FFF721FE00235B
:10806000054600F1140100F110021846534536DBB5
:1080700020692AEAEA7A04F1140319F01F0901EBD6
:108080008A0103EB800C2ED0C9F1200E8A46002213
:10809000186800FA09F002434AF8042B53F8042B3D
:1080A0009C4522FA0EF2F3D8ACEB0403153B23F007
:1080B0000303043304F11500604588BF0423CA504C
:1080C0000AB108F10206013E38462E612146FFF74B
:1080D0001BFE2846BDE8F08701315B00BAE742F895
:1080E000040F0133C2E7043953F8042B41F8042F7D
:1080F0009C45F9D8E7E730B502690C69121B0ED12F
:1081000000F11403143103EB840001EB840150F8F7
:10811000045D51F8044DA54203D005D30122104659
:1081200030BD8342F3D3FAE74FF0FF32F7E72DE992
:10813000F84F0C460646114620461746FFF7DBFF70
:10814000051E08D129463046FFF7AAFD0123C0E9E4
:108150000435BDE8F88FA4BF3B4627463046796812
:10816000A6BF1C4600250125FFF79AFD3E69C560A4
:10817000256907F1140104F1140900F1140E07F147
:10818000100201EB860C09EB8505F246002759F831
:10819000043B52F804BF1FFA83F817FA8BF71B0C45
:1081A000A7EB0808C3EB1B4303EB28431FFA88F82F
:1081B0001F144D4548EA03434AF8043BE7D82B1BFC
:1081C000153B23F0030304331534A54238BF0423C1
:1081D000194473449E460D4665450ED30CF10302C7
:1081E000521A22F0030203398C4538BF00221A4488
:1081F00052F8043D7BB10661ABE755F8048B17FAE2
:1082000088F4221402EB1842A4B244EA02444EF865
:10821000044B1714E0E7013EEAE72DE9F7438946EE
:10822000012157EC106B9046FFF73AFDC7F30A5552
:108230000446C7F3130335BB002E019328D06846CC
:108240000096FFF7D6FD009900B3019AC0F1200314
:1082500002FA03F30B43C24063610192019BA361E5
:10826000002B14BF022201222261D5B1A5F23345B1
:108270000544C9F80050C0F13500C8F80000204698
:1082800003B0BDE8F08343F48013D5E76161E5E70F
:1082900001A8FFF7AEFD019B63610122226120303E
:1082A000E3E704EB8203A0F23240C9F8000018694A
:1082B000FFF77FFDC0EB4210DFE713B54A431146DD
:1082C000019200F059F8044618B1019A0021FEF716
:1082D000B7F9204602B010BD37B5002948D051F893
:1082E000043C0190002BA1F10404B8BFE41800F095
:1082F00035FA204A01981368154633B96360146053
:1083000003B0BDE8304000F02FBAA3420BD921687A
:108310006218934204BF1A685B68636004BF521816
:1083200022602C60ECE71A465B680BB1A342FAD9D5
:1083300011685518A5420BD1246821445418A34252
:108340001160DDD11C685B68536021441160D7E780
:1083500002D90C230360D3E7256861198B4204BF5F
:1083600019685B68636004BF491921605460C7E7FE
:1083700003B030BDE0520010F8B5CD1C25F0030568
:1083800008350C2D38BF0C25002D064601DBA9420F
:1083900003D90C2333600020F8BD00F0DFF9214938
:1083A0000A6814469CB9204F3B6823B921463046E1
:1083B00000F098F938602946304600F093F9431CE4
:1083C00023D10C233360304600F0CEF9E3E7236875
:1083D0005B1B17D40B2B03D923601C44256004E0DE
:1083E0006368A2420CBF0B605360304600F0BCF9DA
:1083F00004F10B00231D20F00700C21ACCD01B1A79
:10840000A350C9E722466468CCE7C41C24F00304E7
:10841000A042E3D0211A304600F064F90130DDD1EA
:10842000CFE700BFE0520010E45200102DE9F04702
:108430008E689E4282460C4690461F4638D88A89EE
:1084400012F4906F32D025680969A5EB01096569BE
:1084500005EB450505EBD57501334B446D109D4289
:1084600038BF1D46530531D52946FFF785FF06461F
:1084700050B90C23CAF80030A38943F04003A3810C
:108480004FF0FF30BDE8F08721694A46FFF7FAFB5D
:10849000A38923F4906343F08003A381266165617F
:1084A0004E44A5EB09052660A5603E46BE4200D9B4
:1084B0003E4632462068414600F036F9A3682268FD
:1084C0009B1B3244A36022600020DBE72A4600F0B9
:1084D00051F906460028E1D121695046FFF7FCFE1C
:1084E000C7E700002DE9F04F98468B891B069DB029
:1084F00007460D4614460ED50B6963B94021FFF7B8
:108500003BFF2860286120B90C233B604FF0FF300F
:10851000D1E040236B610023099320238DF829309B
:10852000CDF80C803023DFF8A8818DF82A304FF089
:10853000010923469A4613F8012B0AB1252AF9D1DD
:10854000BAEB040B0BD05B46224629463846FFF7B0
:108550006DFF013000F0AA80099A5A4409929AF8F6
:108560000030002B00F0A28000234FF0FF32CDE955
:1085700005230AF1010A049307938DF853301A93E7
:108580005446052214F8011B5148FBF7C1FD049A1B
:10859000D8B9D00644BF20238DF85330110744BF0B
:1085A0002B238DF853309AF800302A2B15D0079AD8
:1085B000544600204FF00A0C214611F8013B303B95
:1085C000092B4ED9B0B1079214E0A0EB080309FAC9
:1085D00003F313430493A246D2E7039B191D1B68C0
:1085E0000391002BBBBF5B4242F00202079307934B
:1085F000B8BF049223782E2B0CD163782A2B35D167
:10860000039B1A1D1B680392002BB8BF4FF0FF336A
:1086100002340593DFF8C8A0217803225046FBF707
:1086200077FD40B14023A0EB0A0003FA00F0049B61
:1086300003430134049314F8011B26488DF82810D5
:108640000622FBF765FD002838D0234B1BBB039B9C
:10865000073323F0070308330393099B334409933B
:1086600067E70CFB02320C460120A5E7002301342A
:10867000059319464FF00A0C204610F8012B303AAA
:10868000092A03D9002BC5D00591C3E70CFB0121B2
:1086900004460123F0E703AB00932A460F4B04A9DD
:1086A0003846FEF775F8421C0646D6D1AB895B0604
:1086B0003FF52CAF09981DB0BDE8F08F03AB0093D8
:1086C0002A46064B04A93846FEF706FBEBE700BF37
:1086D0001CBB040026BB0400916701002D8401002F
:1086E00022BB040038B5064D0023044608462B6023
:1086F00000F0E8F8431C02D12B6803B1236038BDB9
:108700006809021082B001B901A942B14BB11378D6
:108710000B601278101E18BF012002B0704710467F
:10872000FBE76FF00100F8E7884210B501EB0204A7
:1087300002D98442234607D8431EA14208D011F82B
:10874000012B03F8012FF8E7024401468A4200D1C9
:1087500010BD13F8014D02F8014DF7E7014800F094
:10876000A6B800BF6C090210014800F0A1B800BF14
:108770006C090210F8B5074614460E4621B9BDE84B
:10878000F8401146FFF7F8BD22B9FFF7A5FD2546D1
:108790002846F8BD00F08DF8A0420FD22146384699
:1087A000FFF7EAFD05460028F2D031462246FFF7E2
:1087B00069FA31463846FFF78FFDE9E73546E7E7C6
:1087C00038B50C460968054609B1FFF7F9FF21469F
:1087D0002846BDE83840FFF77FBD00002C4B1B68E2
:1087E000834270B5044651D0436A43B1DB68002B25
:1087F0004AD1636A196811B12046FFF76DFD6169BE
:1088000011B12046FFF768FD616A11B12046FFF7FC
:1088100063FDA16B11B12046FFF75EFDE16B11B165
:108820002046FFF759FD216C11B12046FFF754FD9A
:10883000E16D11B12046FFF74FFDA16D11B120464A
:10884000FFF74AFD616B11B12046FFF745FDA369B3
:10885000E3B1A36A20469847A16CB9B12046BDE8B0
:108860007040FFF7ADBF495941B90435636A802DA7
:10887000D968F8D12046FFF72FFDBAE70E682046E9
:10888000FFF72AFD3146EFE70025EFE770BD00BF97
:108890006C2C001049B1FF2A85BF8A2303600A703F
:1088A0004FF0FF3098BF012070470846704770476F
:1088B000704751F8043C181F002BBCBF0B58C01860
:1088C00070470000044A05491368002B08BF0B4697
:1088D0001844106018467047E8520010A08C02102F
:1088E000FFF7C8B9012838BF012010B5044620465B
:1088F000FFF7B8F930B900F007F808B931F0F2FD28
:108900008047F4E710BD0000024B1868BFF35B8F8F
:10891000704700BFEC520010FCF75CBCFCF778BC61
:10892000FEE7FEE7FEE70000114812490160D1F8BA
:1089300000D01148016841F470010160BFF34F8F0E
:10894000BFF36F8F0D480E490E4A50F8043B41F8B3
:10895000043B9142F9DB0C480C494FF0000288427D
:10896000B8BF40F8042BFADBFDF796FB00BE000011
:1089700008ED00E00040010088ED00E0B83D050092
:10898000002B00104052001040520010A08C02102A
:10899000034B5868C0F30800003818BF0120704727
:1089A00000ED00E007B5064B0093064A064940F289
:1089B000415300201BF04AFE03B05DF804FB00BFEA
:1089C000BDBC040034BC040059B804002DE9F043D8
:1089D000DFF8D0802D4E8DB04FF0FF31D8F8000079
:1089E0002B4D11F035FA02F0F7F8044648B302F0C7
:1089F00055F8286811F00FFB264B00931FFA80F9F9
:108A0000254A2649CDF8049040F2852300201BF02A
:108A10001DFE0027BBB2994502D802F081F8DBE7C2
:108A20004FF0FF3202A9286811F08AF934689DF8E6
:108A300027309DF9280002AA0DF12901A04701372E
:108A4000E8E7286811F0E7FA154B00931FFA80F960
:108A5000114A1249CDF8049040F2932320461BF0AE
:108A6000F5FDA3B29945B7D94FF0FF3202A92868A6
:108A700011F066F937689DF827309DF9280002AAA1
:108A80000DF12901B8470134EBE700BFFC5300109A
:108A900000540010D0BC040034BC040059B80400D9
:108AA000EDBC0400045400107FB5027A1A49062375
:108AB00053430446CE5A1949CDE90262C388019353
:108AC000174B0093174A40F2062300201BF0BEFD0F
:108AD0006EB1207819F0FCFA054640B1207819F003
:108AE000A7FA20B1E288217A28461AF084FC0A20ED
:108AF0001AF006FE014668B12368036063684360AC
:108B000023890381084B8680187804B0BDE8704043
:108B10001AF00BBE04B070BD542E001059B80400FA
:108B200004BD040034BC04009C09021038B505469D
:108B30000089103080B21AF0E3FD0446B8B12B462C
:108B4000024605F1100153F8040B42F8040B8B4266
:108B5000F9D104F11000606069682A89FFF792F882
:108B6000034B21461878BDE838401AF0DEBD38BD09
:108B70009C09021013B5019064201AF0C1FD04464F
:108B800058B101996422FFF77DF8054B187821460A
:108B900002B0BDE810401AF0C8BD02B010BD00BF61
:108BA0009C090210024A13680BB1013B1360704725
:108BB000F05F00102DE9F0410C468EB000295BD02B
:108BC0008B789A1E102A46D8084619F0CBFBA3785A
:108BD000482B4AD80E2B4FD90F3B392B4CD8DFE806
:108BE00013F056007F004B00BD004B004B004B00C4
:108BF0004B004B004B004B004B004B004B004B001D
:108C00004B004B00CD00FB0010014B00240135014F
:108C1000440176015E02C402E402F10201030C0386
:108C20001A034B004B004B004B004B003303770300
:108C30004B004B004B004B004B004B0084034B00A0
:108C40004B004B004B004B004B004B004B004B00CC
:108C5000D402E500F000203B482BB8D8084619F0B4
:108C600035FD204619F08AFFB1E7682B00F05483E8
:108C700005D8662B00F045830EB0BDE8F0813F3388
:108C8000DBB2012BF8D820460CF02AF9F4E79D4B13
:108C90009D4A00939D4940F2B92300201BF0D6FC69
:108CA000628940F204739A4210D1994B964A9749CF
:108CB000009300204FF430731BF0C8FC002395484C
:108CC0001A461946006810F00BFFD5E7924B009347
:108CD00040F2C5238C4A8D4900201BF0B7FCCBE73E
:108CE0008E4B894A89490093002040F2CA231BF029
:108CF000ADFC237A0393A3880293E3880193884B06
:108D00000093814A814940F2272300201BF09EFCFA
:108D1000237A012B0CD0022B14D0227A022AABD951
:108D2000033AA3882188E08892B201F017FAA3E7FA
:108D3000E1882078012902D101F022FBEDE701F062
:108D400029FBEAE7E2882078012A04D1C222C12166
:108D50000CF0AEF8E1E70CF0BBF8DEE7E389019335
:108D6000704B694A0093694940F2CF2300201BF001
:108D70006DFCE3896C4A033B13807DE76B4B624AD1
:108D80006249009300204FF435731BF05FFC15F02F
:108D900087FE18F035F96648002300681A46194620
:108DA00010F09EFE01201AF075FB65E7614B009301
:108DB0000020554A554940F2DD231BF047FC1220A4
:108DC000F1E75D4B009300204F4A504940F2E22307
:108DD0001BF03CFC1320E6E7584B4B4A4B490093F1
:108DE000002040F2E7231BF031FC554B554801228F
:108DF0001A60002300681A46194610F071FE03201D
:108E0000D1E7514B404A41490093002040F2EF2303
:108E10001BF01CFC4A4A4D480023136000681A46A8
:108E2000194610F05DFE0420BDE7494B364A37492C
:108E30000093002040F2F7231BF008FC454B464806
:108E400001221A6000231A4619463BE7414B43486A
:108E500000241C60006823462246214610F040FE94
:108E60003F4B009340F2013334E73E4B1B68002B2D
:108E70003FF402AF257A002D3FF4FEAE61682A462A
:108E800004A8FEF7FFFE2346374853F80C2FCDF811
:108E900031209B88ADF83530637A8DF8303000682A
:108EA0008DF82F5000230A2204A910F019FE012882
:108EB00008D02E4B0093144A144940F2123300207C
:108EC0001BF0C4FB00232A481A461946FAE6294B30
:108ED000294D0E490093002040F21B330A4A1BF033
:108EE000B5FB95F82D10254B254803294AD10522BD
:108EF0001A7002225A70012299701A71DA700023D6
:108F0000037149E030BD040034BC040059B80400CA
:108F100046BD0400940902104ABD040050BD04007F
:108F200063BD04008BBD0400522E00109DBD0400E3
:108F30008C090210AFBD0400C4BD0400D8BD0400FC
:108F4000F45F001080090210E5BD040098090210CA
:108F5000F2BD0400FC5F0010900902107C090210B1
:108F6000FEBD0400FC5300100054001009BE0400B4
:108F70000454001020BE0400902E00101E2F00107C
:108F8000242F0010012202291A707ED1597003216A
:108F900099701A71DA700171B24B00222046DA60C2
:108FA0001A6101F003FA20460BF09AFF204601F007
:108FB000B1F895F82D30012B21D02078012101F056
:108FC000DFF995F82D30012B19D002232078C22229
:108FD000C1210BF06DFF95F82D30012B0FD0A24F62
:108FE00003264FF0060808FB06F3DB5B23B1F11EF6
:108FF0002078C9B201F082F801360A2EF3D19B48DD
:1090000000231A461946006810F06AFD98480023AC
:109010001A461946006810F063FD964B00221A604C
:10902000954B01221A6095F82D30934205D02046C9
:1090300019F030F8207819F0FDFE904B04AA03F1E6
:109040000806154618685968144603C40833B34225
:109050002246F7D118681B79206023712846FBF758
:109060004FF8874C002302462946184603F0BCFF00
:10907000236843B101F0B0FD70B101F00FFD23682A
:10908000984701F04DFD08208DE6002159709A7037
:109090001971D970032333E723689847F3E77948B8
:1090A00000231A461946006810F01AFD237A01932E
:1090B000754B764A76490093002040F28F331BF0BF
:1090C000C5FA684B714A72490025DD601D6123882D
:1090D0000193704B0093284640F267231BF0B6FAC9
:1090E000207801F061F920780BF00CFE00F0F6FF1B
:1090F000694B14221A805F4B01221A605E4B1D607F
:10910000664B04AA03F11006154618685968144600
:1091100003C40833B3422246F7D12846FAF7F0FFDA
:109120005F4C002302462946184603F05DFF236882
:1091300043B101F051FDA8B101F0B0FC236898479C
:1091400001F0EEFC574B584A029340F2AD33002039
:109150004F49019300924D4A1BF078FAFFF722FD28
:10916000092020E623689847ECE7504B474A4849D6
:109170000093002040F2B5331BF068FA204600F05F
:10918000C9FF204601F012F97DE5237A0393637A43
:10919000029323790193464B00933C4A3C4940F2A9
:1091A000C63300201BF052FA66E5424B374A384975
:1091B0000093002040F2CA331BF048FA17F020FF5A
:1091C0000A20F0E53C4B314A3149009300204FF42E
:1091D00074731BF03BFA17F013FF207818F067FF49
:1091E0000B20E0E5354B00930020284A284940F247
:1091F000DA331BF02BFA0C20D5E5314B234A2449F6
:109200000093002040F2DF331BF020FA207818F0A2
:109210004EFF0D20C7E52B4B1C4A1D490093002033
:109220004FF47A731BF012FA274831F062F90423E5
:10923000ADF81000000C8DF81200A370207804AA7D
:10924000032117F071FE17E5204B00930F4A1049D8
:1092500040F2FE3300201BF0F9F9201D17F0D8FE74
:109260000AE500BF3C2E0010542E00109809021091
:1092700080090210F45F0010F85F001065BF040061
:10928000F45300108409021031BE040034BC040001
:1092900059B8040057BE0400522E001072BF0400DB
:1092A000F8530010F0C1040070BE040082BE040038
:1092B00089BE0400B6BE0400C6BE0400D3BE0400CE
:1092C000E1BE0400F6BE0400B62E001006BF040086
:1092D000144B0093144A154940F2044300201BF03C
:1092E000B5F9204618F0D6FEC6E4E3780193104B9A
:1092F00000930D4A0D4940F2094300201BF0A6F9E6
:10930000BAE40C4B00930020074A084940F20D4391
:109310001BF09CF91B2046E5074B009340F21343DA
:10932000D8E400BF0EBF040034BC040059B80400E8
:1093300016BF040039BF040049BF0400044B1A687B
:10934000002112B901B11A607047013A0121F8E712
:10935000F05F0010174B184A10B51870174B1A60C1
:10936000174B184A1A60184B184A1A60184B194ABA
:109370001A60194B194A1A60194B1A4A1A600446A6
:1093800018F00CFF19F082F918F0F6FF18F02CFE17
:109390002046154900F080FF204614490BF092FC4E
:1093A0002046134900F084FEBDE81040114817F034
:1093B000E5BD00BF9C090210162F00109C7E021014
:1093C000487F021014C20400B47E02100C54001036
:1093D000947E02101E2F0010B07E0210C42E0010CA
:1093E0009C470010242F0010ECC1040010C20400A0
:1093F000E8C10400FA2E00101A4908B5084617F013
:10940000CDF91849032016F093FF174814F0BCFA61
:10941000164814F0D3FA164B164A1878164914F069
:10942000C9FF164916481AF0C3F816481E211AF04B
:1094300091F8154843890289C18880881AF09CF800
:109440001AF0A8F81149124800F0EEFE00F0E6FE0E
:10945000104900200BF064FD0BF05CFDBDE80840F6
:1094600017F068B9758B01002D8B010011220300E4
:10947000C02E0010A98A0100542E001035350300BB
:1094800015350300912E0010C42E0010ADA201006E
:1094900015A30100654D020013B51AF0E5F91AF0A5
:1094A00013FB364B364904224FF438601AF08CF81F
:1094B000B0F5386F0BD9334B0093A0F538600190AD
:1094C000314A32494FF49D6300201BF0BFF814F07D
:1094D00021F913F04DFF14F02BF814F097F82C48F5
:1094E0001AF0B6F917F0E6FD2A481AF0B1F9044669
:1094F000002017F035F916F06FFC17F04BFC16F052
:1095000003FF17F091F817F029FD17F0B9FD17F0D8
:10951000E7FA204617F074F91F481AF099F917F086
:1095200045FF17F04DFE17F0EBFE1C481AF090F9BE
:1095300014F000FA15F08EFA15F00EF914F090FC04
:1095400017481AF085F918F0E7FA18F039FD18F005
:109550002DFDFB2012F022FE12481AF079F918F0C6
:1095600071FD11481AF074F911F0ACFD0F481AF0B2
:109570006FF902B0BDE81040FFF7ECBEEA2E001014
:109580005054001082BF040034BC040059B80400D9
:10959000C910030019080300BD1303006DD90200B0
:1095A0007D1B03005120030095B10200B58B010023
:1095B00011F09ABD07B5084B0093084A084940F2DC
:1095C0004B5300201BF042F8064B802283F80C23FB
:1095D00003B05DF804FB00BFA1BF040034BC04006D
:1095E00059B8040000E100E0024B4FF0FF31186869
:1095F00010F02EBC8C090210F0B5054685B0244849
:109600000F4603F03CFE234B234A244900241C70E0
:10961000234B019006460093204640F291531BF0E5
:1096200015F8204B00931C4A1C49019740F29253B5
:1096300020461BF00BF8B74215D91B4B0093CDE920
:1096400001672046144A154940F29F531AF0FEFF65
:109650002C467719BC4215D1324607E0295D03201C
:109660000AF054FF0134A742F8DC3A46294608487C
:1096700003F00BFE0D480AF0DDFF05B0BDE8F04039
:1096800001F0ECB914F8011B03200AF03FFFE1E7F9
:109690003C2E0010B438021034BC040059B8040049
:1096A000B2BF0400C4BF0400E4BF04000C2F0010CC
:1096B000014803F0DBBD00BF3C2E00100A46014606
:1096C000014803F02FBE00BF3C2E00102DE9FF47DC
:1096D0002F4EDFF8D0803788DFF8CC90DFF8CCA0B1
:1096E00005460C463388A34215D32246294640F24C
:1096F000047000F09FFD002838D125440446FFF790
:1097000047F998B9B9F80610D8F8000001EB410103
:1097100010F09EFB1BE03A46294640F2047000F030
:1097200089FD18BBE41B3D44A4B2E8E7D8F800006B
:1097300003AA002110F030FC48B1039B3BB14FF06D
:109740008053CAF80030BFF34F8FBFF36F8F002CE8
:10975000C8D100240F4B009320460F4A0F490194B3
:1097600040F2EA531AF072FF20460DE0002CF0D0D0
:109770000B4B00930020084A0849019440F2E6533D
:109780001AF064FF6FF0060004B0BDE8F08700BF78
:10979000522E001020C0040034BC040059B804004C
:1097A0000BC0040094090210C42E001004ED00E068
:1097B00070477047704770477047000037B5344CAA
:1097C0002378002B62D1334D296821B9032201206F
:1097D00010F05EF92860304D296821B9032201207C
:1097E00010F056F928602D4D296821B90322012077
:1097F00010F04EF928602A4D296821B90322012072
:1098000010F046F92860274D296821B9032201206C
:1098100010F03EF92860244D296821B90322012067
:1098200010F036F92860214D296821B90322012062
:1098300010F02EF928601E4D2A6822B927210A202F
:1098400010F026F928601B4D296821B90322012058
:1098500010F01EF92860184A136843B901920222D9
:109860000092164916484FF4807210F06FFCFFF713
:10987000A1FE144B019303230093134913480023C3
:109880004FF4007210F062FC0123237003B030BD6E
:10989000D05F00109809021080090210840902109C
:1098A000900902107C090210940902108C09021020
:1098B00000540010045400100854001038C0040074
:1098C000CD8901008809021048C00400619E010092
:1098D000114B1B68012B13B51BD0104C2268012AB9
:1098E0000AD119F099FBFFF753F80D4B58B11868DE
:1098F00001AA002110F050FB0A4B0020D860206024
:10990000186102B010BD18684FF47A7110F0A0FA17
:10991000F2E76FF00600F4E7F85F0010F45F001064
:10992000980902103C2E001037B50020FFF7D0FF39
:10993000574B93F82430002B30D1564B564A03F145
:10994000140153F8040B42F8040B8B42F9D11B7835
:10995000524D534C137015214F4A2970022019F0B3
:1099600023FB504A2178032019F01EFB4A4A29782C
:10997000002019F019FB4B4A2178012019F014FB43
:10998000002019F059FB484B009340F26F63474A9F
:10999000474900201AF05AFE03B030BD012B40D1D8
:1099A000444B1B78FBB9444A3B4B11681960516822
:1099B000127A1A72414A5960093302F1140152F8BD
:1099C000040B43F8040B8A42F9D112781A70334B16
:1099D00037491E221A703A4B0093344A40F2796399
:1099E00000201AF033FE2D4D2D4C2B4A29780220F1
:1099F00019F0DAFA2B4A2178032019F0D5FA264A11
:109A00002978002019F0D0FA264A2178012019F08F
:109A1000CBFA032019F010FB2A4B009340F2876326
:109A2000B5E7032BB8D1284B284A03F1100153F8AE
:109A3000040B42F8040B8B42F9D1254B164A03F173
:109A4000140153F8040B42F8040B8B42F9D11B7834
:109A5000124D134C137015210F4A2970022019F072
:109A6000A3FA104A2178032019F09EFA0A4A2978AD
:109A7000002019F099FA0B4A2178012019F094FA84
:109A8000002019F0D9FA134B009340F2A1637EE74E
:109A9000902E00103C2F001018540010502E001073
:109AA000142F0010D15F001052C0040034BC040019
:109AB00059B8040037540010C0B2040038540010E4
:109AC00063C0040064C00400E0090210D92E001035
:109AD000D42E001077C004007FB51D4B1D4A1E49CF
